:020000040800F2
:10000000FF170020D5200008252100082521000821
:1000100000000000000000000000000000000000E0
:100020000000000000000000000000002521000882
:10003000000000000000000025210008051E000847
:100040002521000825210008252100082521000878
:100050002521000825210008252100082521000868
:100060002521000825210008252100082521000858
:100070002521000825210008252100082521000848
:1000800025210008000000000000000025210008D4
:100090000000000025210008252100082521000876
:1000A0000000000025210008252100082521000866
:1000B000111E00080000000025210008F51D0008A1
:1000C00008B5064B064803331B1A062B00D808BD9B
:1000D000044B002BFBD09847F9E7C046C001002035
:1000E000C00100200000000008B50748074B1B1A9C
:1000F0009B10DA0FD318591000D108BD044A002A0A
:10010000FBD09047F9E7C046C0010020C0010020A5
:100110000000000010B5074C2378002B09D1FFF731
:10012000CFFF054B002B02D0044800E000BF0123A5
:10013000237010BDC0010020000000005C5B0008BF
:1001400008B5094B002B03D00848094900E000BF5F
:1001500008480368002B03D0074B002B00D09847BA
:10016000FFF7C2FF08BDC046000000005C5B00084E
:10017000C4010020C00100200000000070B50D4E39
:100180000D4D0024AD1BAD1005D0A300F358013474
:100190009847A542F9D105F0E1FC084E084D00242E
:1001A000AD1BAD1005D0A300F35801349847A5420C
:1001B000F9D170BDC45D0008C45D0008C45D0008CD
:1001C000C85D0008F0B5474680B482B083074FD0C1
:1001D000541E002A48D0CEB2031C032503E0621E41
:1001E000002C41D0141C01335A1E16702B42F6D13C
:1001F000032C31D9FF250D402A0215432A0415434B
:100200000F2C18D9271C103F3F093E01B04610267D
:10021000F618B44646461A1C66441560556095604B
:10022000D5601032B242F8D101373F010F22DB19FD
:100230001440032C10D9271F1E1DBF080196BE00B5
:10024000B446019E1A1C664420C2B242FCD101375A
:10025000BF000322DB191440002C05D0C9B21C19C1
:1002600019700133A342FBD102B004BC9046F0BD2B
:10027000031C141CBCE7C04602780B780130013126
:10028000002A01D09A42F7D0D01A7047031C0A788E
:1002900001311A700133002AF9D170470023C25C82
:1002A0000133002AFBD1581E7047C046F0B5944672
:1002B000012244465F464D46564690465242F0B4AF
:1002C00093460124002563198B420CD25A468618A6
:1002D000C75C365DB74231D21D1C01249A1A6319DE
:1002E00090468B42F2D301234446664601225B428C
:1002F00034609146012400259846631999420DD92E
:10030000061C4644C75C365DB7421FD942461D1CD9
:1003100001249A1A631991469942F1D843465846E6
:1003200001330130834203D34C4666463460181CC7
:100330003CBC90469946A246AB46F0BDB7420DD0B4
:100340000123AB46984601350124BCE7B74209D0EA
:100350000123A846994601350124CEE7444505D03E
:100360000134B0E74C4504D00134C6E71D1C01241C
:10037000A9E71D1C0124C0E7F0B54D465F4656466F
:100380004446F0B4734C8146A544101C0E1C151C49
:10039000191C03AA1C1CFFF789FFFFAA834604ABA4
:1003A000143210C39342FCD1601E0023002C07D0EE
:1003B000EA5CC11A920004AF0133B950A342F7D1ED
:1003C000039A281CA9185A4600F014FA00286BD189
:1003D00000218846012359460022591A0192671EBE
:1003E000A2460091321C4446464656444B46981855
:1003F0000021B21A00F0BCF900284CD1002E4AD0DE
:1004000049468B19013B1B7804AA9B00D358002B4B
:100410000AD0002C04D0039A934201D251468B1A81
:1004200098440024321CDFE7231E5B4500D25B4664
:10043000BB4210D24846404402E00133BB420AD2DC
:10044000E95CC25C9142F8D0009A00244244D21880
:100450009046321CC8E75A46013A5C4500D371E029
:1004600048464044A95C835C99426BD1B446061C63
:1004700004E0E85CF15C884203D11A1C531E9442EC
:10048000F7D36646013494425ED8039C5146A0449B
:10049000321C0C1BA8E700202F4B9D443CBC90460F
:1004A0009946A246AB46F0BD5F46E31B5B4547D38A
:1004B000013303935A4601239A1A00210092671EC2
:1004C000321CA0460E1C43464946F4188818A21A4E
:1004D000002100F04DF90028DDD1002CDBD0494689
:1004E0000B19013B1B7804AA9B00D358002B1FD18A
:1004F0008819BB450ED288195A46A95C825C5B46B6
:10050000914204D017E0E95CC25C914213D10133FF
:10051000BB42F8D359464B1E02D2BDE7013BBBD3C9
:10052000E95CC25C9142F9D0039AB618221CCAE772
:10053000F618221CC7E700998A19D618221CC2E7B0
:100540005B46B5E75A469DE743464046019348441B
:10055000A2E7C046ECFBFFFF14040000F0B55F46C5
:10056000444656464D46F0B4037885B0071C0C1C33
:10057000002B00D1F4E00A78002A15D00D1C0126CA
:10058000011C02E02A78002A0BD09B1A5A425341E0
:1005900001311E400B780135002BF3D12B78002B55
:1005A00009D1381C002E08D005B03CBC90469946B5
:1005B000A246AB46F0BD0020F6E7781C217800F09B
:1005C0003FF92D1B061EF6D0012DEDD07B1901271A
:1005D000984200D81F1A1F2D06D9301C391C221C26
:1005E0002B1CFFF7C9FEDFE7291C03AA201CFFF71D
:1005F0005DFE8046039842462118201C00F0FAF860
:1006000000285ED10122002152420123404642448B
:100610008A46181A934601903A1C371C2E1C5546E0
:10062000A9198946B8188A1A002100F0A1F80028F3
:10063000C1D14A46002ABED05346C24500D24346E5
:100640009E420DD9FA18E15C525D914205D031E02D
:100650007A19E15CD25C91422CD101339E42F7D8E9
:100660005A46D0457FD979198C4660465844A15CDA
:100670000378994277D1231C61465446B446AA4672
:100680000E1C1D1C04E0E85CF15C884203D11A1CBE
:10069000531E9442F7D32B1C66465546A2461C1C9B
:1006A00053460133934260D8039B4A46ED18F31A30
:1006B0009A46B5E7019800214519ED188A464A4641
:1006C000AEE740462B1A434500D24346013303931D
:1006D000424601239A1A01235B4200214344924679
:1006E000B1469B463A1C0E1C77194B4698180021C0
:1006F000BA1A00F03DF8002800D05CE7002F00D1C6
:1007000059E749468819454511D94B464344404667
:10071000225C9B5D9A421ED149464346881903E0FC
:10072000E15CC25C914217D101339D42F8D8594631
:100730005B46013100D137E7E15CC25C914206D1F2
:10074000013B00D230E7E15CC25C9142F8D0039AF1
:10075000B6183A1CC8E743465644F6183A1CC3E795
:100760000D1C01261AE742469AE778191CE7C04695
:10077000F0B5CCB2830737D0531E002A1FD00278C1
:10078000A2421DD0032505E0002B18D00278013BC2
:10079000A24215D001302842F6D1032B11D8002BEC
:1007A0000DD00278A2420BD0421CC31804E00132E3
:1007B000511E0978A14203D0101E9842F7D10020A3
:1007C000F0BDFF2631400E0231430E04074D0E43AB
:1007D0000268074F7240D11991432942DFD1043B8F
:1007E0000430032BF4D8DAE7131CD6E7808080802E
:1007F000FFFEFEFE30B5032A1DD9031C0B439C07E8
:1008000010D005780C78431C8018A54205D015E05F
:100810001D780C780133A54210D101318342F7D104
:10082000002030BD03680C68A34204D1043A0430B0
:100830000431032AF6D8002AE3D1F1E7281BF0E7B8
:10084000CAB2F0B5002A3DD083070ED00378002B42
:100850005BD09A4235D0032404E00378002B54D0B7
:100860009A422ED001302042F7D1FF2319400B02CB
:1008700019430B0419430368254E1C1C4C40A51951
:10088000A5432C1C9D199D432B1C224E2343334210
:100890000DD1043003681E4F0C1C5C40E519A543C4
:1008A0002C1CDD199D432B1C23433342F1D00378CC
:1008B000002B04D129E001300378002B25D09A4287
:1008C000F9D1F0BD84070AD00378002BF9D00322B8
:1008D00002E00378002BF4D001301042F9D1036814
:1008E0000B4E0C499A199A430A4206D10430036808
:1008F000074FDA199A430A42F8D00378002BE0D068
:1009000001300378002BFBD1DBE70020D9E7C0469C
:10091000FFFEFEFE8080808002B4714649084900D7
:10092000095C49008E4402BC7047C04603B471465E
:10093000490840004900095A49008E4403BC7047E9
:10094000002934D00123002210B488422CD3012482
:100950002407A14204D2814202D209011B01F8E717
:10096000E400A14204D2814202D249005B00F8E7D0
:10097000884201D3401A1A434C08A04202D3001BFC
:100980005C0822438C08A04202D3001B9C0822432F
:10099000CC08A04202D3001BDC082243002803D06D
:1009A0001B0901D00909E3E7101C10BC704700289F
:1009B00001D00020C04307B4024802A140180290B1
:1009C00003BDC046190000000029F0D003B5FFF7B1
:1009D000B9FF0EBC4243891A1847C0467047C0464B
:1009E00010B5104B8022596992020A4386B05A61B1
:1009F0000423019302230293902401230593E40529
:100A000000230393201C032301A9049303F0EAFDB0
:100A100008230193201C122301A9029303F0E2FD95
:100A200006B010BD0010024038B5051CFFF7D8FF16
:100A30000D4B8022D96992020A430C4CDA610C4BAF
:100A40000C222360201C00236560A360E360236107
:100A50006261A361E36104F02FFF236801211A683A
:100A60000A431A6038BDC046001002400406002048
:100A70000044004070B5074C061C0D1C131C311CB3
:100A8000201C2A1C04F09AFD21688023CA691A429E
:100A9000FCD070BD0406002008B5034803490122BC
:100AA00004F074FC08BDC046040600207006002057
:100AB000002108B50A1C1C2004F030FF084B8022DE
:100AC00052051A60074B20211B681A680A431A60F6
:100AD0001A6840210A431A60FFF7DEFF08BDC046CE
:100AE00000E100E004060020014B18787047C04682
:100AF0007006002030B5104B8022596992020A43DB
:100B000087B05A61E0230193902402230293E40505
:100B1000032301250493201C002301A905930395B9
:100B200003F060FD1023201C01A90193029503F03E
:100B300059FD07B030BDC04600100240144B802262
:100B4000996952010A4310B59A61FFF7D3FF114C1E
:100B5000114B012262610222236022618223E02282
:100B60005B00D2006360E26038238022E36122628E
:100B700000239200201CA360A362A261636203F0C1
:100B800097F9236840211A880A431A8010BDC0468D
:100B9000001002407806002000300140134B8022F4
:100BA000996952010A4310B59A61FFF7A3FF104CEF
:100BB0003822E2610122626102222261E0220D4BB1
:100BC000D200E26080222360226200239200201C77
:100BD0006360A360A362A261636203F069F92368A2
:100BE00040211A880A431A8010BDC04600100240F6
:100BF000780600200030014070B5074C061C0D1C23
:100C0000131C311C201C2A1C03F0B4F92168022398
:100C10000A891A42FCD070BD7806002038B5051C40
:100C20000C1C131C291C221C014803F0B5FB38BD09
:100C3000780600207FB50A4B80225969D2020A4308
:100C40005A61C02301931223029303220123054812
:100C500001A903930492059303F0C4FC07B000BDFF
:100C6000001002400004004838B5051CFFF7E2FF01
:100C70000E4B8022D96992030A430D4CDA610D4B69
:100C8000201C2360FA239B005D430023656001253F
:100C9000A360E56023616361E361236204F0E2F92C
:100CA00023681A6815431D6038BDC0460010024015
:100CB000DC0600200054004038B5051CFFF7BAFFE1
:100CC0000D4B8022D96992030A430C4CDA610C4B1C
:100CD000A56023600B4B01256360201C0023E560A9
:100CE00023616361E361236204F0BCF923681A683D
:100CF00015431D6038BDC04600100240DC060020D0
:100D000000540040A086010038B5051C0C1C131CC3
:100D1000291C221C014804F0F3F938BDDC06002030
:100D200008B54100022289B20248131C04F0A2FA5D
:100D300008BDC046DC0600204205134B10B5120C5E
:100D4000040E12191A60114A5C681040C0000019A4
:100D500058600C0E48051140DA68C9008918002255
:100D60009A615A611A615A62094A000C1278001994
:100D7000D96001219860D96119628A4203D105487E
:100D8000191C01F0C9FE10BD9407002000F8FF1FD8
:100D9000540700201807002070B5104E3478002C3E
:100DA0001AD10F4B0F481B6801254360C0239B02DB
:100DB000036180239B038460C46043618461C561D7
:100DC000046244628462C562046301F00CFF201C6B
:100DD000211C3570FFF7B0FF70BDC04654070020DE
:100DE0001407002018070020114B00B51B78012BB9
:100DF0001DD008281BD80F4BFFF78EFD05080B0DE3
:100E00000F1113151700962292000FE09622520040
:100E10000CE078220AE03C2208E0302206E01822AA
:100E200004E00C2202E0082200E006221A6000BD65
:100E30005407002014070020064B00B51B78012B37
:100E400007D0054B002803D0802212069A6000E0EC
:100E5000986000BD5407002018070020164B30B5DD
:100E6000D969802292040A43DA61C02387B09B00CB
:100E70000193022302930323002401A904930F4842
:100E800004230593039403F0ADFB0D4A0D4B0E4D67
:100E900006201A602C70FFF7A7FF201CFFF7CCFF7D
:100EA000FFF77AFF094B24210122FF31DC609C60AF
:100EB00006C32A7007B030BD00100240000400488D
:100EC000006400401807002054070020BC070020E1
:100ED00008B5034B1863181C01F018FF08BDC04685
:100EE0001807002008B5044B0A1C58630021181C81
:100EF00001F0D2FF08BDC04618070020094A38B5E6
:100F0000041C11610023101C8B4207D21A1DE55CE2
:100F10009200821801335560DBB2F5E70A21FFF732
:100F2000D7FF38BDBC07002038B50A4C051C0A2184
:100F3000201CFFF7D7FF002398420AD12269934271
:100F400007D21A1D9200A2185268EA540133DBB28C
:100F5000F4E738BD5807002007B500236A46009320
:100F600013711B2313705B235370684641230321C5
:100F7000937000F085FE07BD07B500236A46009315
:100F800013711B2313705B235370684642230321A4
:100F9000937000F075FE07BD07B500236A46009305
:100FA00013711B2313705B23537068464423032182
:100FB000937000F065FE07BD1FB501AC201C002139
:100FC0000C22FFF7FFF81B2323705B2363703B2386
:100FD000E370A3713423E37133213023372221716D
:100FE0002372201C6D230A21A2706271637200F0CB
:100FF00047FE1FBD1FB501AC201C00210C22FFF7CE
:10100000E1F81B23237033215B2363703B223023E1
:1010100021713721A370E2706171A27123723422B1
:101020006D23201C0A21E271637200F029FE1FBDAE
:1010300038B5051C0024AC4203DAFFF78DFF0134FC
:10104000F9E738BDF8B5114E114F051C0124AC422B
:101050000CD8301C102100F013FEAC4203D0381C19
:10106000022100F00DFE0134E4B2F0E71124013C4E
:10107000E4B2FFF791FF002CF9D10124AC4204D275
:101080000134FFF769FFE4B2F8E7F8BDBC5B000884
:10109000745B0008F8B5051C0F1C141C0E26013EDD
:1010A000FFF76AFF002EFAD11526013EFFF774FF05
:1010B000002EFAD103215C48AE0000F0E1FDF759A3
:1010C000381CFFF7EBF881B2381C00F0D9FD574807
:1010D0000A2100F0D5FD012C0CD1554BF450FFF73F
:1010E00089FF5448082100F0CBFD201CFFF7AAFF20
:1010F0001E2485E0002C09D14D4BF450FFF77AFFF8
:101100004D48082100F0BCFD0120EFE70C2D29D14E
:10111000FFF770FF494E0221301C00F0B1FD484B33
:1011200001241A7805321A70464AA600B758381CAE
:10113000FFF7B4F881B2381C00F0A2FD3C4A935985
:10114000012B01D1404800E04048082100F098FD03
:10115000E30703D43948022100F092FD01340B2C3F
:10116000E2D1C5E70D2D22D1FFF744FFFFF7F4FED2
:10117000374F0124381C2B2100F082FD661C072C00
:1011800006D02E48022100F07BFD341E082CF1D140
:101190002124013CFFF700FF002CFAD1FFF7DCFE11
:1011A000FFF7DAFEFFF7D8FEFFF7D6FEA0E7294BE0
:1011B0001B780C2B1FD1264F0124381C2B2100F04B
:1011C0005FFD661C062C06D01C48022100F058FD6D
:1011D000341E072CF1D12124013CFFF7DDFE002C49
:1011E000FAD1FFF7B9FEFFF7B7FEFFF7B5FEFFF73D
:1011F000B3FEFFF7B1FE0E21174800F041FD77E77F
:10120000013CFFF7C9FE002CFAD10D4E33780F33A5
:10121000A34203DBFFF7A0FE0134F7E70D4B1D707F
:1012200000233370F8BDC046775B0008C25B00083E
:10123000F00700207B5B0008845B0008745B0008FB
:10124000DD010020000000208D5B0008965B000897
:101250009F5B0008DC010020CD5B00087FB50B4BD5
:1012600090200193012302220293049301A90023F9
:10127000C0050392059303F0B5F9F8239B000448D9
:1012800001A9019303F0AEF907B000BDFC600000B6
:101290000004004808B59020C0050549012203F06C
:1012A0007DFAF82103488900012203F077FA08BD8E
:1012B000FC6000000004004808B59020C005054906
:1012C000002203F06BFAF82103488900002203F0A2
:1012D00065FA08BDFC6000000004004808B5012163
:1012E00002480A1C03F05AFA08BDC0460004004830
:1012F00008B503480221012203F050FA08BDC04698
:101300000004004808B503480221002203F046FA11
:1013100008BDC0460004004810B5064C0121201C41
:101320000A1C03F03BFA201C0221012203F036FACA
:1013300010BDC0460004004810B5064C0121201C19
:10134000002203F02BFA201C0221002203F026FACF
:1013500010BDC0460004004810B5032386B00193B9
:1013600001230293039304930D48002301A90593DD
:1013700003F038F9FFF7D0FF0524FFF7B9FF013C70
:10138000642001F0A3FBE4B2FFF7BCFF642001F08E
:101390009DFB002CF1D1FFF7CFFF06B010BDC0467A
:1013A0000004004838B50268094B9A420ED1094C36
:1013B0002578FFF799FB084B585523780133DBB2AA
:1013C000142B00D100232370FFF766FB38BDC04605
:1013D00000440040DE0100202C08002038B5194BE5
:1013E000194C1A781D1C092A01D000232370237878
:1013F000002B10D101F064FB144B1B68C01AFA23B8
:101400009B00984207D9FFF787FF01F059FB104B6B
:101410001860012312E02378012B10D101F050FB5A
:101420000B4B1B68C01AFA239B00984207D9FFF7A1
:1014300083FF01F045FB054B18600023237009234F
:101440002B7038BDDF010020E4010020E8010020FE
:10145000E001002008B5FFF76FFFFFF72DFF024BFB
:1014600000221A7008BDC046DF01002030B52A4BAB
:1014700087B01A781D1C294C012A0BD00023237039
:10148000FFF7E8FF96208001FFF7CEFAFA20C000B0
:1014900001F01CFB01A800211422FEF793FE237823
:1014A000002B18D101F00CFB1D4B1B68C01AFA234E
:1014B0009B0098420FD91B4901A8FEF7E7FEFA22CC
:1014C0001421520001A8FFF7D5FA01F0F9FA164BE2
:1014D000186001231AE02378012B18D101F0F0FAEB
:1014E000114B1B68C01AFA239B0098420FD90F4971
:1014F00001A8FEF7CBFEFA221421520001A8FFF743
:10150000B9FA01F0DDFA064B1860002323700123BD
:101510002B7007B030BDC046DF010020E401002081
:10152000E80100205E5C0008E0010020655C000826
:1015300070B51C4D2B78022B0ED01B4B00221A705D
:10154000FFF788FF96208001FFF76EFAFFF7B0FAE9
:10155000FA20C00001F0BAFA144E3378002B1DD0E7
:101560000A2001F0B3FA124C1249201CFEF7F6FFD4
:10157000002802D0FFF7BCFE07E0201C0E49FEF752
:10158000EDFF002804D0FFF7BDFE0C4B01229A604E
:101590000021201C14223170FEF714FE02232B7050
:1015A00070BDC046DF010020E4010020DE01002004
:1015B0002C0800205E5C0008655C0008F007002035
:1015C00030B5294B87B01A781D1C284C032A09D046
:1015D00000232370FFF73EFFFFF7B0FAFA20C000A8
:1015E00001F074FA01A800211422FEF7EBFD237824
:1015F000002B18D101F064FA1D4B1B68C01AFA23A6
:101600009B0098420FD91B4901A8FEF73FFEFA2222
:101610001421520001A8FFF7EFFA01F051FA164B1E
:10162000186001231AE02378012B18D101F048FA41
:10163000114B1B68C01AFA239B0098420FD90F491F
:1016400001A8FEF723FEFA221421520001A8FFF799
:10165000D3FA01F035FA064B1860002323700323F8
:101660002B7007B030BDC046DF010020E401002030
:10167000E80100205E5C0008E0010020655C0008D5
:1016800010B5194B86B01A781C1C042A07D0FFF736
:10169000E1FEFFF783FAFA20C00001F017FA0021FB
:1016A000142201A8FEF78EFDFA2201A8142152008F
:1016B000FFF7B4FA002813D101A80C49FEF7DCFDAE
:1016C000002802D1FFF714FE07E001A80849FEF741
:1016D000D3FD002804D1FFF715FE064B01221A6145
:1016E0000423237006B010BDDF0100205E5C0008FB
:1016F000655C0008F0070020114B70B51A781D1CBE
:10170000052A0BD00F4B00221A70FFF7A3FE6420AE
:10171000FFF7AAFAFA20C00001F0D8F90A4E012416
:10172000201CFFF7FDFA002803D101237361FFF7A6
:10173000D5FD0134A4B2802CF2D105232B7070BDED
:10174000DF010020E4010020F007002010B51A4B53
:1017500086B01A781C1C062A08D0FFF77BFEFA20F8
:10176000FFF7AAFAFA20C00001F0B0F90021142214
:1017700001A8FEF727FDFA2201A814215200FFF765
:10178000C3FA002813D101A80C49FEF775FD002803
:1017900002D1FFF7ADFD07E001A80949FEF76CFD96
:1017A000002804D1FFF7AEFD064B01229A61062303
:1017B000237006B010BDC046DF0100205E5C00084B
:1017C000655C0008F007002038B51F4B1F4C1A78E5
:1017D0001D1C072A09D000232370FFF73BFEFFF7EB
:1017E0003DFBFA20C00001F071F92378002B12D1E3
:1017F00001F066F9164B1B68C01AFA239B00984249
:1018000009D914480621FFF779FB01F059F9124B69
:101810001860012314E02378012B12D101F050F954
:101820000D4B1B68C01AFA239B00984209D90B483C
:101830000721FFF763FB01F043F9054B1860002314
:10184000237007232B7038BDDF010020E401002046
:10185000E80100205E5C0008E0010020655C0008F3
:101860001FB5174B1A781C1C082A07D0FFF7F2FD8A
:10187000FFF7F4FAFA20C00001F028F901A80021CE
:101880000A22FEF79FFC01A8FFF74EFB002813D1A8
:1018900001A80C49FEF7F0FC002802D1FFF728FD53
:1018A00007E001A80849FEF7E7FC002804D1FFF78C
:1018B00029FD064B01221A62082323701FBDC04672
:1018C000DF0100205E5C0008655C0008F007002076
:1018D00038B51D4B1D4C1A781D1C0A2A09D000234F
:1018E0002370FFF7B7FDFFF7B9FCFA20C00001F045
:1018F000EDF82378002B10D101F0E2F8144B1B68AF
:10190000C01AFA239B00984207D9FFF7C3FC01F0E5
:10191000D7F8104B1860012312E02378012B10D167
:1019200001F0CEF80B4B1B68C01AFA239B009842BB
:1019300007D9FFF7C1FC01F0C3F8054B186000237D
:1019400023700A232B7038BDDF010020E401002042
:10195000E8010020E0010020084B80225969D203F1
:101960000A435A615969802292020A435A615969AD
:101970008022D2020A435A617047C04600100240DA
:1019800030B5802299B0022352021493159202932B
:1019900080228023D2029B02002401251792059306
:1019A000072280230BA801920A930B950C9516949D
:1019B0000394049402F0F8FE211C01A803F0E8F857
:1019C00005A803F021FA0B4B9A6915439D6104F0B9
:1019D000A1F8FA218900FEF7B3FF03F0DBFF042032
:1019E00003F0F4FF01204042211C221C03F096FF6B
:1019F00019B030BD0010024008B50268084B9A4289
:101A00000DD1084B8022D96912040A430021DA6102
:101A10001F200A1C03F082FF1F2003F0B1FF08BD46
:101A2000005C00400010024008B5011C87239B00A9
:101A3000ED31C058FF3100F0D9FD08BD872292007A
:101A400008B5031C80581C224A439B18FC33DA69F2
:101A500000F000FE08BD8722920008B5031C8058E4
:101A60001C224A439B189A6B00F02EFE08BD08B555
:101A700087239B00C05800F0AFFE08BD38B587240F
:101A8000A400051C0121005900F091FE285900F026
:101A90006AFE38BD87239B0010B5041CC05800F0B7
:101AA00089FEA369002B04D0024B06211A690A4360
:101AB0001A6110BD00ED00E038B58369041C0A4DC1
:101AC000002B09D02B68002B06D1FFF759FF074BDD
:101AD00006211A698A431A6100232B6087239B0021
:101AE000E05800F071FE38BDEC05002000ED00E08C
:101AF00070B58722051C174892008550164A882623
:101B0000B600026008220024A8510321426002228C
:101B10008260C160026144618461046201F056FA2E
:101B2000A859211C221C182300F0DCFFA859221CF4
:101B30008021582300F0D6FFA859221C01219823A8
:101B400000F0D0FFA8598121221CD82300F0CAFF41
:101B5000201C70BD40080020005C004008B58823B0
:101B60009B00C05801F070FA002008BD10B5141C8D
:101B70008822920080581A1C231C01F085FA00204C
:101B800010BD08B588239B00C05801F0E1FB002080
:101B900008BD08B588239B00C05801F00BFD00204C
:101BA00008BD08B588239B00C05801F04DFD0020FA
:101BB00008BD88239B00C35848B200B51C220028EA
:101BC00005DA7F2001404A439B18283303E0514344
:101BD0005B180933FF33987800BD08B588239B0054
:101BE000C05801F03AFA002008BD10B58824A400BE
:101BF000005901F09DFD002010BD10B58824A400FF
:101C0000005901F067FC002010BD08B588239B0037
:101C1000C05801F0C7FC08BD00487047EC01002027
:101C2000704700207047000008B5097800F03EFAC0
:101C3000024B186800F00BFF002008BD600A00206E
:101C400008B50448044B0549186000F0DDFE00208B
:101C500008BDC046A40A0020600A0020640A0020D3
:101C600000B521280AD10023C2220B704A70CB7024
:101C700001220B714B7108238A708B71002000BD0B
:101C800038B500230E4C0A1C1D1C191901330D70A8
:101C9000211C202BF9D100239CB2944203D2C45CB6
:101CA000CC540133F8E7074C206800F0A2FE20680E
:101CB00000F0B2FE041C022000F008FF201C38BD1A
:101CC000840A0020600A002010B5094C0022201C64
:101CD000084900F04CFC201C074900F062FC074951
:101CE000201C00F07CFE201C00F065FC10BDC046EE
:101CF000A40A00203C000020F40000202C0000205A
:101D0000122301480B8070475C0000200423014827
:101D10000B8070475800002010B5044C0A1C044882
:101D2000211C00F0BDFB201C10BDC046C80C0020CB
:101D30006D5C000810B5044C0A1C0448211C00F01E
:101D4000AFFB201C10BDC046C80C0020755C00080D
:101D500010B5044C0A1C0448211C00F0A1FB201CF7
:101D600010BDC046C80C0020815C000810B5044CB2
:101D70000A1C0448211C00F093FB201C10BDC04627
:101D8000C80C00208C5C0008002310B51C1C020F3E
:101D9000092A01D8303200E03732CA54CA18013358
:101DA00000015470082BF2D110BD000030B50D4B6E
:101DB000C1B00D1C18686946FFF7E6FF0A4B02A97F
:101DC0001868FFF7E1FF094B04A91868FFF7DCFF6B
:101DD000074C6846211C2A1C00F062FB201C41B005
:101DE00030BDC046ACF7FF1FB0F7FF1FB4F7FF1FB1
:101DF000C80C002008B5024801F05AFD08BDC046D5
:101E00004008002008B500F053FE03F0EEFD08BDC9
:101E100008B5024803F0EEFD08BDC04604060020E8
:101E2000114B012219681143196058680F4901408C
:101E3000596018680E490140196018680D49014041
:101E4000196058680C4901405960D96A0F208143D4
:101E5000D962186B094901401963596B91430022FB
:101E600059639A607047C046001002400CB8FF08E2
:101E7000FFFFF6FEFFFFFBFFFFFFC0FF2CFEFFFF93
:101E8000F8B5071C0024E5B2BD421FD1FFF794F856
:101E9000104AA3009E58301CFEF700FA81B2301C95
:101EA000FFF7EEFE0D2D03D00B480221FFF7E8FEF1
:101EB00001340E2CE7D11524013CE4B2FFF76CF895
:101EC000002CF9D10D20FFF7B3F8F8BDFFF792F819
:101ED000DEE7C04678000020745B000838B500F0EB
:101EE000EFFD104D2B68C01A0F4B984219D90F4CBB
:101EF00023780B2B01D10C2323702078FFF7C0FF30
:101F00000B4B20780B4902221870FFF7C3F8237897
:101F10000133DBB20C2B00D90123237000F0D0FD7C
:101F2000286038BDF0050020581B00007400002018
:101F3000C80E002078000020013808B50C282FD8E2
:101F4000FEF7EAFC070A0D101316191C1F2225299B
:101F50002C00FFF78BFA23E0FFF7EAFA20E0FFF707
:101F60002FFB1DE0FFF78CFB1AE0FFF7C5FB17E026
:101F7000FFF7ECFB14E0FFF727FC11E0FFF770FC24
:101F80000EE0FFF72BFA0BE0FFF7A2FC08E0054B91
:101F900001221A7004E0034B00221A70FFF75AFA6C
:101FA00008BDC046F4050020F8B500F079FDFFF744
:101FB000E7FCFFF7D1FCFFF7CFF9FFF785FE00F054
:101FC0007FFD304B304E314C186035780A2D19D8D2
:101FD000201C2F49FEF7C2FA071E05D0281C2D49E8
:101FE0000022FFF757F83CE0201C2B49FEF7B6FA19
:101FF000002807D0281C27490122FFF74BF8201C96
:10200000391C30E0201C2549FEF7A8FA002807D02B
:10201000234B1A780132D2B20D2A0ED901220CE0DC
:10202000201C2049FEF79AFA00280BD01C4B1A7886
:10203000013AD2B2002A00D10D221A701878FFF7A7
:102040001FFF0EE023780D2B11D1154D1149287873
:1020500002223070FFF71EF833780B2B01D10123D9
:102060002B70201C00210A22FEF7ACF8ADE7281CDB
:10207000FFF762FF0C4B1B78012BA6D1FFF72EFF59
:10208000A3E7C046F0050020C80E0020F50500209B
:102090009A5C0008780000209D5C0008A05C0008A5
:1020A00074000020A35C0008F40500200023084A07
:1020B00030B51D1C9D540133141C0A2BFAD100238A
:1020C000DAB28A4203D2C25CE2540133F8E730BD8F
:1020D000F50500200D488546002103E00C4B5B58B8
:1020E000435004310B480C4B42189A42F6D30B4A2A
:1020F00002E0002313600432094B9A42F9D3FFF740
:102100008FFEFEF73BF8FFF74FFFFEE7FF170020BB
:10211000CC5D000800000020C0010020C0010020AC
:10212000CC0E0020FEE70B7803704B784370CB7821
:102130008A781B02D31843804B790A791B02D31883
:102140008380CB798A791B02D318C380704710B57E
:102150008021041CFFF71DFD201C0021FFF719FD45
:1021600010BD0000F7B5041C48780D1C092800D9E3
:102170000FE1FEF7DBFBD900F6000E01EF000E01C8
:102180007A000A000E01C7009B004B88180A01382C
:10219000062800D9FDE0FEF7C9FB070010001F006C
:1021A000FC00FC003C00490084239B00E358694686
:1021B000207C1B680631984736E08523227C9B00F3
:1021C000E358002A01D19B6A00E0DB6A68460630CA
:1021D00098470223011C36E0D8B2052800D9D8E080
:1021E00084229200237CA258FEF796FB0305070980
:1021F0000B0D526808E0926806E0D26804E01269AC
:1022000002E0526900E092696946181C0631904765
:102210000AE0237C002B00D0BBE085239B00E35821
:1022200068465B6B06309847011C0DE0237C002B51
:1022300000D0AEE085239B00E35868461B6B063058
:1022400098470723011C4B706E4606363288002AD9
:1022500000D1A2E0E888002800D19EE0031C904253
:1022600000D9131C9AB233805CE08B88002B00D01D
:102270008FE0CB88002B00D08BE04F88FE267F2399
:1022800076001F40A35D032B00D182E0FF235B009B
:10229000E754391C201CFFF7A0FC201C00F04FF96C
:1022A0000223002F00D10123A35576E089783C4E0C
:1022B000317001296DD8FE235B00E25C022A02D056
:1022C000032A07D065E000295FD001210322616065
:1022D000E25411E0002906D10222E254201C616080
:1022E00000F07BF951E0616801294ED0C9B2201C91
:1022F00000F073F931786160201C00F061F9022868
:1023000043D146E0CA88012A43D1FE235B00E35C47
:10231000022B03D0032B3CD1211D03E00023211C01
:10232000A3600831201C12E0FE235B00E35C023B4B
:10233000012B2ED80123E36081239B00E358002B5F
:1023400001D00323E360211C0C31201C022200F089
:10235000C4F822E04B88012B1FD181229200A350A8
:102360000CE0FE235B00E35C023B012B11D84B88A1
:10237000012B12D1812300229B00E25085239B0078
:10238000E358201C9B68291C9847201C00F0D7F8B4
:1023900003E0201C291CFFF7DAFE0020FEBDC0462A
:1023A000FF05002038B5FE235B00C35C041C0D1C38
:1023B000032B0ED10B79012B0BD885239B00C3581F
:1023C0009B689847EB88002B07D1201C00F0B7F8DA
:1023D00003E0201C291CFFF7BAFE002038BD38B5E9
:1023E0000D1C8B886A78041CD9B2012A12D0002AED
:1023F00029D0032A52D1FE225200825C022A2AD01E
:10240000032A47D16A88002A12D14B0610D0FFF761
:10241000C0FB0DE0FE225200825C022A1BD0032A80
:1024200038D16A88002A39D14B0608D0FFF7B9FBAA
:1024300085239B00E358201C9B68291C9847201C7F
:1024400000F07DF82AE0FE225200825C022A02D0CF
:10245000032A06D01EE04A0620D0201CFFF799FB75
:102460001CE07F250D401A0601D5013500E010352E
:102470002D016519201C0435FFF79BFB002802D0B5
:1024800001232B6000E02860201C291C022200F0A0
:1024900024F803E0201C291CFFF759FE002038BD5A
:1024A00030B5031E18D01C781D1AEDB2002C01D0D7
:1024B0000133F8E76B1C5B0013800B7003234B7038
:1024C00002230278002A07D05D1CCA54EDB2023301
:1024D0000130DBB24C55F4E730BD10B5131CFA22C5
:1024E0000C1C5200022181508361C3610021221C17
:1024F000FFF77BFB002010BD10B50C1C131C002146
:10250000221CFFF772FB002010BD38B5131C041C01
:10251000FA220D1CFC340321520081502A1CE36076
:1025200023610021FFF769FB002038BD10B50C1CAA
:10253000131C0021221CFFF760FB002010BD08B512
:10254000FA23002104225B00C2500A1C0B1CFFF777
:102550004CFB002008BD08B5FA23002105225B00D2
:10256000C2500A1C0B1CFFF748FB002008BD10B529
:10257000002814D085239B00C458002C01D00024CF
:10258000C450002902D084239B00C1500121FE23A6
:102590008B40C1540270FFF7ABFA002000E002202C
:1025A00010BD00B5002904D085239B00C150002038
:1025B00000E0022000BD08B5FFF7D0FA002008BDFA
:1025C00008B585239B00C358002B01D1022003E0EE
:1025D0001B6898470028F9D108BD08B585239B00E2
:1025E000C3585B689847002008BD000038B58223B7
:1025F0009B00C518041C281CFFF795FD0122FA2337
:102600009340E250124BE25AFC235B00E2508223DB
:102610009B00E15C1F230B40012B0DD0002B06D04B
:10262000022B0ED1201C291CFFF7D9FE0EE0201C26
:10263000291CFFF797FD09E0201C291CFFF7B2FEBB
:1026400004E07F239943201CFFF7A3FA002038BD44
:102650000E02000038B5041C002927D1FA235B00C4
:10266000C358032B2ED1451DFF35A868EB6898424F
:102670000BD9C01AA860984200D9181C83B2111C4B
:10268000201C1A1CFFF752FF1CE085239B00E35817
:102690001B69002B06D0FE225200A25C032A01D146
:1026A000201C9847201CFFF74AFF0BE085239B0066
:1026B000C3589B69002B05D0FE225200825C032A7E
:1026C00000D19847002038BDF8B5041C00293CD142
:1026D000FA235B00C358022B2FD1C369066AB342A9
:1026E00007D99E1BC661B6B2111C321CFFF704FF4E
:1026F00023E08769311C381CFEF766F90D1E0CD1EA
:10270000B7420AD3FC267600A3599F4205D2201C6B
:102710002A1CFFF7F1FEA5510FE085239B00E3582B
:10272000DB68002B06D0FE225200A25C032A01D1F6
:10273000201C9847201CFFF70EFF80239B00E25CC3
:10274000012A0ED10022E2540BE085239B00C358DE
:102750005B69002B05D0FE225200825C032A00D167
:1027600098470020F8BD002138B50A1C041C4023FE
:10277000FFF7FCF9231C4025FC335D6100222B1C74
:10278000201C8021FFF7F2F90122FE2393402562ED
:10279000E25486239B00E358002B06D085239B0040
:1027A000E35821795B68201C9847002038BD0174EC
:1027B00000207047FE235B00C15CFE22FF32815483
:1027C0000422C25400207047FE23FF33C25CFE2364
:1027D0005B00C2540020704708B5FE235B00C35C59
:1027E000032B06D185239B00C358DB69002B00D047
:1027F0009847002008BD86239B00C35800B5002BD6
:1028000004D0852200209200985000E0022000BDF4
:1028100038B586239B00C45887239B00C358002BE0
:102820000BD08025AD00605DFF2806D0044A9B6870
:10283000A25C211C9847FF236355002038BDC04689
:10284000010200004323038000487047B0000020CD
:1028500043230380004870477C010020432303800A
:1028600000487047380100200A2303800048704761
:102870002C01002070B58626B600041C8559FFF790
:10288000C4F983239B00E850A3590220002B0BD0EE
:102890008723812283408240E358A85883229200F4
:1028A000A918DB689847002070BD000070B586232A
:1028B0009B00C6580B786022051C0C1C1A40202A6D
:1028C00024D1CA884878002A1AD05BB2002B0BDAD0
:1028D00087239B00EB58311C9B689847E288281C93
:1028E000311CFFF7FAFD11E080239B00F054CA88E9
:1028F000074B281CF254CA88311CFFF706FE05E07E
:1029000087239B00EB58111C9B689847002070BDE3
:102910000102000038B58121041C8625FFF731F93A
:102920000121201CFFF72DF9AD00201C8221FFF7AB
:1029300028F96359002B09D087239B00E3585B6873
:1029400098476059FFF76CF900236351002038BDA8
:10295000F8B5037C041C81210222002B09D18023BD
:102960009340FFF703F902228023201C01219340AA
:1029700006E04023FFF7FAF8201C01210222402341
:102980008726FFF7F3F8B600822103220823201CD4
:10299000FFF7ECF8301CFFF73FF98627BF00051C56
:1029A000E0511AD0A35900261B68984785239B0045
:1029B000EE50EE518123277C9B00EA58201C012118
:1029C000B74205D180239B00FFF717F9381C05E0BB
:1029D0004023FFF712F9301C00E00120F8BD00B5DC
:1029E000002904D087239B00C150002000E0022072
:1029F00000BD86239B00C35882208000195084218B
:102A0000890000205A50704786239B00C2588123BA
:102A10009B000020D1507047F8B586239B00C45816
:102A2000002C11D08527BF00E6590125002E0CD1BE
:102A300082239B00E25884239B00E35A8121FFF705
:102A4000D4F8E551351C00E00225281CF8BD86238A
:102A50009B00C35810B5002B0DD08122047C92003E
:102A60009A5801214023002C01D180239B00FFF7BD
:102A7000C4F8002000E0022010BD704710B5041C0F
:102A800003F048F8FA218900FDF75AFF02F082FFAF
:102A900001204042211C002202F040FF002010BD16
:102AA00008B50020FFF7EAFFFFF7E7FF002008BDA9
:102AB000024B1A6801321A607047C04600060020B7
:102AC000014B18687047C0460006002013B50190FE
:102AD000FFF7F6FF041CFFF7F3FF019B001B984272
:102AE000F9D313BD30B51C240D0605D57F2529402B
:102AF0004C432834001903E061430931FF31401889
:102B0000002A02D18272838004E00122C3801B0C60
:102B100082720381002030BD036880208000F0B500
:102B20001E5801252A1C35434C691D508725AD00D0
:102B30005E59A240D04306405E51CD69002D0FD1B1
:102B40008325AD005E59CF6806405E518E883D04F6
:102B50002E43E40090251C19AD0066510E8810E04C
:102B6000012D14D18325AD005E590F6816435E51C7
:102B70008E883D042E43E40090251C19AD0066515B
:102B80008E898F683D042E439125AD0066518D6975
:102B90008124A400002D02D11D59054001E01D59DA
:102BA00015431D510C69002C05D18524A4001D5925
:102BB0002840185106E0012C04D1852080001C58C3
:102BC00014431C50096A012904D1872189005858EF
:102BD00002435A5080229200995801208143995013
:102BE0000020F0BD704770B5041E00D18BE0836BF0
:102BF0001B041B0E01D1FFF7F5FF251C23680222E1
:102C000039352A701968914319601A6801210A43FD
:102C10001A60FFF755FF061C23680122596811420C
:102C200005D1FFF74DFF801B0A28F5D960E05968F0
:102C3000114266D0A1698022012902D119680A4394
:102C400002E0196891430A1C1A60E16940220129D7
:102C500002D119680A4302E0196891430A1C1A60FC
:102C6000216A2022012902D119680A4302E0196869
:102C700091430A1C1A60616A1022012902D1196865
:102C80000A4302E0196891430A1C1A60A16A0822EB
:102C9000012902D119680A4302E0196891430A1C0C
:102CA0001A60E16A0422012902D119680A4302E08C
:102CB000196891430A1C1A60A168E2680A432169F5
:102CC0000A4361690A43616801390A43DA611A6893
:102CD00001218A431A60FFF7F3FE061C22680123D4
:102CE0005168194207D0FFF7EBFE801B0A28F5D97F
:102CF0000320287008E05068184002D160872B70CC
:102D000002E004232B70012070BD0000F0B5031C0D
:102D100038331A7885B0041C03910220012A00D1AF
:102D2000ACE001221A70A16B221C0904090E393291
:102D3000222901D1322100E012212068117081681E
:102D40004D010CD481680E010BD4856880214905A2
:102D5000294008D104201070197001208EE0002550
:102D600002E0012500E002252A01C0218218490065
:102D70005658012333405350236B9E68DF680296F8
:102D80000197002E05D15658019F37431E687605DE
:102D900006E05758029E3E43019F37435E68F600A7
:102DA0003743575019690F27394019610291C221E1
:102DB00049005658BE4356505758029E3E431F6A1C
:102DC00056503E06DF69390431439F695E693143DD
:102DD0003E0231432E0180198930FF300160DF6AE5
:102DE000196B0E0639040E43596A0E43996A331C57
:102DF00009020B434360C0235B00D158012001430B
:102E0000D150FFF75DFE061C1D4A1E491E4823686F
:102E10009B68002D02D103401C4F06E0012D02D11A
:102E20000B401B4F01E01B4F1340DB195F1EBB41E2
:102E3000DBB2002B14D0039F0137E8D0039F002F93
:102E400007D1231C39330320187038340023237032
:102E500014E0FFF735FE039F801BB842D4D9F0E79A
:102E6000A26B231C1204120E3933322A01D1222202
:102E700000E00122383400201A70207005B0F0BD47
:102E8000000003100003000803000004FDFFFFFB27
:102E900000FDFFF70000FDEFF7B5051C38352B7876
:102EA000041C0E1C00920220012B00D18CE0012397
:102EB0002B70A36B271C1B041B0E3937122B01D15F
:102EC000322300E022233B70FFF7FAFD019003213B
:102ED0002268002E01D1D36800E013690B405842EC
:102EE0004341DBB2002B12D000980130F0D0009BA0
:102EF000002B04D10320002338702B7064E0FFF70F
:102F0000DFFD019BC01A009B9842E0D9F2E7310136
:102F1000D82751187F00CF5904203840636B84466E
:102F200098606746D8204000002F03D10F587F0DCE
:102F30001F6002E00F58FF085F600F580220384002
:102F4000D860DA20400008580F270740DA204000F8
:102F50000958FF20090A0140596331015118B9315C
:102F6000FF311F610F6807405F610F683F0A07402C
:102F70009F610F683F0C0740DF610F683F0E1F62C3
:102F80004F6807405F624F683F0A07409F624F6883
:102F900049683F0C3840090ED86219632023002E7F
:102FA00003D1D1680B43D36002E011690B43136175
:102FB000A36B39341B041B0E322B01D1122300E00A
:102FC0000123002023702870FEBD000070B5041E90
:102FD00036D0EA250223FF354355FEF70DFD0022CA
:102FE0006068231C111C01261C33824207D01A730F
:102FF0005E73D9739961D96119620132F4E70A22CB
:10300000FF32A3180022111C824209D05E1E1970E3
:10301000327099700132F160316171611C33F3E7F4
:1030200022680121931CD9870020911D5032D88736
:10303000C8871080034ADA87631DD877605500E09F
:10304000012070BD00BDFFFF03688022583319883E
:1030500012020A4300201A80704710B5F422520071
:10306000845C031C0220012C0CD001209854002900
:1030700004D1196880204C31088001E0581DC177C7
:103080000020985410BD0000F7B5051CC8B244B22A
:103090001C26002C04DA7F240C407443283403E0FF
:1030A000341C4C430934FF342C197F263140C009AD
:1030B000E370F42360702170E2605B00E95C022041
:1030C000012900D127E10121E954E0782B68032888
:1030D00019D826789049B6009E19FDF71DFC020EFE
:1030E000070A30880140802080000AE030880140D3
:1030F00008E030880140C02002E030880140802094
:10310000C000014331802078844E8100591800911D
:10311000834F0988384331400843009980B20880C2
:10312000A07A2178B446002862D16778181C0197EC
:10313000A78850300097019F002F1FD00288C90038
:1031400059188020009F8918C00001220918974350
:103150000F80227892009A1811884F0604D51188A2
:103160000E4070490E43168022786D4892009B18DD
:1031700019886D4A0A4020214A40C5E00688C900E6
:1031800089196A4E5918009F89190126B7430F8083
:1031900001882078664FC0000818D91908183E2AFF
:1031A00008D95109D60601D1013989B2614A89028B
:1031B000114304E05108324200D0013189020180FC
:1031C000227892009A1811884F0405D5118860461C
:1031D0000140594801431180227892009B181988B8
:1031E000564A0A40C02189014A404D490A438CE0B1
:1031F000890059180888524A4B4F024051480243EF
:103200000A80191C503120780A88C000801880225A
:10321000E688D20018188018012296430680088894
:103220002178424EC90059180918208989199043FC
:1032300008802278617880209200C0019A180029C5
:1032400034D11188014205D01088614608403A49BE
:103250000143118022783C4992009A181088460652
:1032600005D5108866463040084380B21080227829
:10327000664692009A1810883040014389B2118046
:1032800022782E4892009A181188254E0140C020BD
:1032900080014140314389B21180227892009B180D
:1032A0001A8817403743BFB21F8030E0168827497D
:1032B000064205D0108866463040084380B2108030
:1032C000227892009A181088460605D5168860461E
:1032D00006401448304310802278664692009A18BF
:1032E00010883040014389B2118022780C48920046
:1032F0009A1811880F400743BFB2178022780F49F0
:1033000092009B181A880A40024392B21A80F42352
:1033100000205B00E854FEBD8F89FFFF0F0F000007
:103320008080FFFFC0800000BF8FFFFF040400000B
:10333000060400000080FFFF80C000008FBFFFFF79
:103340000F0E000080810000C080FFFF80C0FFFFE3
:10335000CAB253B2F0B5041C1C20002B04DA7F2340
:103360000B404343283303E0031C4B430933FF3333
:10337000E3187F20D20901405A70F42219705200DC
:10338000A15C0220012900D193E00121A154987A87
:103390005E7822681D784749002820D1AD00551974
:1033A0002888002E0DD0460605D52E88424830408C
:1033B000424E304328801B789B00D2181088404B27
:1033C0006FE0470405D52E883B4830403D4E3043E2
:1033D00028801B789B00D21810883B4B61E0802727
:1033E000AD003548FF015519002E2DD12E883E42E3
:1033F00004D02F88334E07403E432E801D78AD0009
:1034000055192E88B4466746304E7F0604D52F885E
:1034100007403743BFB22F801D78AD0055192F8864
:1034200038400643B6B22E801878274E8000101818
:103430000588234F35400D43ADB205801B789B00B6
:10344000D21813883B402DE02E883E4205D02F88AD
:103450001F4E07403743BFB22F801D78AD0055196E
:103460002F887E0606D52F880740BC46134F664638
:1034700037432F801D78164EAD0055192F883840E0
:103480000643B6B22E8018780D4F800010180588BC
:103490003D400D43ADB205801B780B489B00D21810
:1034A000138803401943F42389B200205B00118084
:1034B000E054F0BD8080FFFF0F0F0000C0800000CF
:1034C000BF8FFFFF80C000008FBFFFFFC080FFFFE6
:1034D00080C0FFFF70B5051C7F2001401C244C43B9
:1034E0000934FF342C19226121700022F421636118
:1034F000A261627049006E5C0220012E49D0012059
:103500006854E1688B4203D95B1A63610B1C00E0CD
:103510006261A07A2A682178002802D060780028A9
:103520001CD1101C503000881A4EC9004118901947
:1035300041183E2B09D9580980B2DE0601D1013865
:1035400080B2154B8002184306E0580880B2DE07AF
:1035500001D5013080B2800208800AE0012808D13C
:10356000101C50300088C900511809180948091862
:103570000B80237800209B00D2181188074B0B404A
:10358000C02189014B4006490B431380F4235B00A3
:10359000E85470BD060400000080FFFF8FBFFFFFEE
:1035A000808000007F2319401C2359434018FC30C1
:1035B000808C704710B5F4225200845C031C0220FA
:1035C000012C36D00120CCB2985460B21C220028C5
:1035D00004DA7F2008405043283003E0101C4843A1
:1035E0000930FF301818012282707F221140E4094F
:1035F000017044701A680F48002904D114880E49DC
:1036000021400E4C0DE089005218002C04D0148883
:103610000B492140102404E014880A4921408024E9
:1036200064016140084380B21080F42200205200FF
:10363000985410BD8080FFFFBFBFFFFF1010000037
:10364000BF8FFFFF8FBFFFFF021CC8B243B270B530
:103650001C24002B04DA7F230B406343283303E050
:10366000231C4B430933FF33D31800249C707F2461
:1036700021401970C009F42158704900545C02209F
:10368000012C33D001205054187811685D788000E7
:10369000174C0818002D10D005886E0605D5068831
:1036A000144D3540144E354305801B789B00C918D6
:1036B0000888124B0340302010E005886E0405D5C1
:1036C00006880C4D35400E4E354305801B789B0017
:1036D000C91808880B4B0340C020800143401C439D
:1036E000F423A4B200205B000C80D05470BDC0460F
:1036F0008080FFFF0F0F0000C0800000BF8FFFFF22
:1037000080C000008FBFFFFF70B58024E400001967
:1037100001335B1082180C1C002B08D065782678CA
:103720002D02601A354385520234013BF4E770BD27
:10373000F8B5061C1D1C081C7F2303401C245C4399
:10374000283434192261111C01270022F42023702F
:103750006561A26167704000305C84466346022068
:10376000BB4200D181E0F420E368400037549D4221
:1037700003D9ED1A65611D1C00E06261A37AAFB246
:103780003068002B0FD1A2883B1CFFF7BDFF3368C8
:1037900021781A1C50321288C9005B189B18334AD2
:1037A0009B181F8051E062782378002A1ED1021CEA
:1037B00050321288DB00D2182D4B9446C218944424
:1037C0003E2D09D96B099BB2EA0601D1013B9BB2A0
:1037D000284D9B022B4306E06B089BB2EA0701D5FC
:1037E00001339BB29B02624613800AE0012A08D192
:1037F000021C50321288DB00C3189B181C4A9B180D
:103800001D8023789B00C3181B885A0601D5228986
:1038100000E0E2883B1CFFF777FF6178326823788D
:10382000002908D19B00D2181188134B0B40134973
:103830000B43138009E0012907D19B00D318198895
:103840000D4A0A400E490A431A80237830689B00CB
:10385000C31819880B4A00200A4030214A400A49FF
:103860000A431A80F4235B00F054F8BD0204000000
:10387000060400000080FFFF0F0F0000C080000062
:1038800080C00000BF8FFFFF8080000010B5802443
:10389000E400001901335B1082180C1C002B05D0CA
:1038A000601A805A013B20800234F7E710BD000007
:1038B000F0B5036885B00633DB8F041C1BB2002B08
:1038C0000FDB23680633DA8F500500D4A1E1AF4A3D
:1038D000201CDA87FEF7D2F8201C0021FFF7BDFB81
:1038E00097E16F460E3700233B802068831DDA8FF7
:1038F00003AB92B21A8012B2002AE2DA19880F22C0
:103900001140009100D0A3E01988102319402AD15A
:1039100002889F4BA56B1340221C0380283212782B
:10392000031C50331B88D20080189A4AC018801894
:103930000388201C9B059B0D2364EB18A363FEF7F3
:103940008AF8636ADBB2002BCFD0E36B002BCCD1BB
:10395000626A8021494211432268C9B24C32118007
:10396000621DD377C1E703889BB23B803B881E056D
:1039700020D5031C50331A8884235B00E35C8649FE
:10398000DB00C3189B185B181B8884256D009B0502
:10399000F6269B0D621976009361A1199288FFF7B4
:1039A00075FF23687D4A1988201C0A401A80FEF79B
:1039B0003BF89AE73B881BB2002B96DA0288774BDC
:1039C000754913400380031C50331A8884235B001D
:1039D000E35CDB00C3189B185B181B8884229B05E3
:1039E00052009B0DA518AB61002B07D0AA8829694E
:1039F000FFF74CFF2E69A86933182B61201C0021AA
:103A0000FEF71CF822686449131C50331888EB68D1
:103A1000101840183E2B09D9590989B2DD0601D189
:103A2000013989B25E4B8902194306E0590889B20F
:103A3000DE0701D5013189B2890201801188594B15
:103A40000B40C02189014B4057490B4313804CE781
:103A5000009DAD0043191A88019592B23A803A88C8
:103A600012B2002A59DA009E1C25754319884B4A68
:103A700009350A40FF351A806519A97A031C5033AD
:103A80002A7800290FD11B88D20082184249D21807
:103A900052181688B605B60D2BD0AA882969331C92
:103AA000FFF7F4FE25E0910041180988D2001B8839
:103AB0008218D2184E0407D5364952181688B60512
:103AC000B60D0CD0EA8806E0334BD2181688B6053E
:103AD000B60D04D02A892969331CFFF7D7FE2B784D
:103AE00020689B00C3181988304A0A4030490A43AD
:103AF0001A80A9698B19AB612B6929789A196B69AE
:103B00002A61002B02D0E868864203D2201CFDF710
:103B100095FF02E0201CFFF7DDFC3B881D0600D46A
:103B2000E3E6009E1C2520687543019E184A831910
:103B3000198828350A4065191A80AE7A031C50335B
:103B40002A782969002E0ED11B88D2008218D2183B
:103B5000104BD21813889B059B0DAB613ED0AA88F1
:103B6000FFF7D2FD3AE0960086193688D2001B880E
:103B70008218D21876061DD5064E921913889B0519
:103B80009B0DAB6120D0EA881CE0C046FFFBFFFF25
:103B90000F8FFFFF02040000060400008F0F0000DB
:103BA0000080FFFF8FBFFFFF808000000F0F00002D
:103BB000C08000003A4BD21813889B059B0DAB6167
:103BC00002D02A89FFF7A0FD2B7826689B00F31806
:103BD0001988344A0A4034490A431A8023682978EC
:103BE0001A1C50321288C8001B1830489B181B182A
:103BF0001A882B699205920DAA619A186B692A613D
:103C0000201C002B02D1FDF726FF6EE6FFF790FD8A
:103C10006BE62268931DD98F4D0401D52449D987BD
:103C2000D98F8E0401D52349D987DB8FD8040DD5D0
:103C3000931CDA8F04218A43DA871F4A201CDA8713
:103C4000FDF73AFF23681D4A0633DA8723689A1D79
:103C5000D18F0D0510D51A490233D187D98F08208D
:103C60000143D987D98F04200143D987D38FDE043C
:103C700002D4201CFDF70EFF23680633DA8F90056F
:103C800004D5104A201CDA87FDF7F1FE23680633BD
:103C9000DA8FD10501D50C4ADA8705B0F0BDC046F0
:103CA000060400000F0F000080C0000002040000A6
:103CB000FFBFFFFFFFDFFFFF00BDFFFFFFEFFFFFC5
:103CC000FFF7FFFFFFFDFFFFFFFEFFFFF7B5041C3F
:103CD0000E1C01921D1CFEF7F3FE071C22681389BF
:103CE000019933408B4237D0691CF8D0002D0AD19E
:103CF0002368E0219A888A4361689A808222520070
:103D0000914213D105E0FEF7DBFEC01BA842E5D9C6
:103D1000EEE7A268802109028A4203D08021C9000F
:103D20008A4203D11A8840218A431A80A26A8021DC
:103D300089018A4207D118880849014019801988E9
:103D40000A4392B21A80231C5D3301221A705C343C
:103D500000232370032000E00020FEBDFFDFFFFFF3
:103D6000F0B585B0041C0E1C171C1D1CFEF7A8FE28
:103D70000190C02168462368C9000F301A8932407B
:103D8000BA423FD08E4204D1002F02D11A7BD2B268
:103D900002706A1CF2D0002D0AD12368E0219A88B3
:103DA0008A4361689A8082225200914214D106E0CF
:103DB000FEF786FE019A801AA842DAD9EDE7A268DA
:103DC000802109028A4203D08021C9008A4203D19E
:103DD0001A8840218A431A80A26A802189018A4276
:103DE00007D1188809490140198019880A4392B2FD
:103DF0001A80231C5D3301221A705C340023237067
:103E0000032000E0002005B0F0BDC046FFDFFFFF4B
:103E100038B50D1CC021002249012B1C041CFFF7E2
:103E20009FFF021E0ED1201C80212B1CFFF74EFF8E
:103E3000021E07D1C021201CC9002B1CFFF790FFD8
:103E4000002805D05E3423782022134323700320FA
:103E500038BD426838B58223041C0D1C5B009A42B1
:103E60000DD1836880221202934203D08022D200B7
:103E7000934204D1236840211A888A431A80002281
:103E8000201C80212B1CFFF721FF021E07D1C0211F
:103E9000201CC9002B1CFFF763FF002805D05E34EF
:103EA0002378202213432370032038BD704700007D
:103EB000F8B5041E59D0051C02235D352B70FFF7A1
:103EC000F5FF236840211A88E0208A431A80E268BF
:103ED000C0000026824205D9F02109018A4206D19C
:103EE000311C06E080214901824201D101E0311CF0
:103EF000A662266B002E05D1824201D9022000E085
:103F0000012020636768A668A0693E4327693E4395
:103F100067693E43E7693E43276A3E43A76A3E43DB
:103F20008027BF0007403E43B6B21E80266B022E9C
:103F300004D11F88802636013E431E80666B676A67
:103F4000000C3E4332430426304002431143A28D0D
:103F500089B299801A82998B054A5E340A409A8305
:103F60000020012320702B7000E00120F8BDC04626
:103F7000FFF7FFFFF7B5071C5D371D1C3B78041CDE
:103F800000910220012B00D0A1E0181C002900D1D3
:103F90009DE0002A00D19AE0261C5C3630788446E9
:103FA00061460220012900D191E0337003233B7068
:103FB000231C5E3301930198002300990370A287AC
:103FC000E287A21DA163236402329387D387A26A8A
:103FD0008021236889018A4207D118883C49014021
:103FE000198019880A4392B21A80A06880221202AE
:103FF000904204D119888022D2010A431A8019887C
:104000004022114202D119880A431A80E168E02354
:10401000DB00994229D9E38F002B29D00221201CF3
:104020000A1C2B1CFFF752FE002801D003204EE093
:10403000A36B20681A8802338281A363E38F013B5C
:10404000E387E8E70221201C0A1C012B1CD02B1C53
:10405000FFF73CFE0028E9D1A36B20681A880233E1
:104060008281A363E38F023BE387E38F002BE9D1D7
:10407000A16A80239B01994214D123688022198868
:1040800052010A431A800DE02B1CFFF71FFE002887
:10409000CCD1A36B21685A1CA2631B780B73E38FEE
:1040A000013BE1E7201C291CFFF7B2FE0028BDD12F
:1040B000A268002A02D123689A891B8901233B70D8
:1040C00000233370019B1878431E9841C0B2FEBD97
:1040D000FFDFFFFFF0B5041C271C5D3787B03E787B
:1040E0001D1C00206B4601910392D882012E01D045
:1040F00002204BE10199002900D146E1039A301CCE
:10410000002A00D142E1002D00D13FE1FEF7D8FCAA
:10411000231C5C331A780290012AE9D01E70052313
:10412000261C3B705E360023039F3370231C2764DC
:104130000833019FA26ADD878021A31DDD878901E5
:10414000A763E587A58723688A4207D11888904925
:104150000140198019880A4392B21A80E268E0216E
:10416000C90098888A4201D8012D02D989490140A5
:1041700002E08021490101439980188840210842CA
:1041800002D1188801431980E023DB009A424ED9FE
:1041900080239B019C460125E18F231C08330029C5
:1041A00034D0226802201789074212D0A06B01394F
:1041B000078889B29781A76BE1870237A763002937
:1041C00007D1A16A614504D1118880277F01394355
:1041D0001180DA8F002A0BD021680A892A4207D081
:1041E000226C8989118002322264DA8F013ADA87DF
:1041F0000C9F0137D0D00C9F002F30D0FEF760FC11
:10420000029FC01B0C9FB842C2D928E0DA8F002A57
:10421000DFD1A06A80239B01984200D092E065E044
:10422000FEF74EFC029FC01B0C9FB84217D880239C
:104230009B0180209C464001E28F231C0833002A0A
:1042400050D0216802270D893D4211D1DD8F002D0C
:104250002AD10C9F0137EFD00C9F002FE0D1231CF7
:104260005D3301221A705C340023237003208DE03B
:10427000A56BBA4206D92D88023A8D81A16BC91966
:10428000A16305E06A1CA2632A780A73E28F013AEF
:10429000E287E28F002AD9D1A16A6145D6D122688E
:1042A000118801431180D1E7226801271189394221
:1042B000CFD0216CBD420DD995890D80023121648A
:1042C000D98F023989B2D987B942C2D893880343BA
:1042D0009380BEE74D1C2564127B0A70DA8F013A89
:1042E000DA87B6E7DA8F002AB0D192E70121201CE5
:1042F0000A1C0C9BFFF7EAFC002803D0337802224B
:1043000013433370E0686D46F022163523681201BE
:10431000904202D19B899BB213E01B7B276BDBB2DF
:104320002B80022F0ED10121201C0A1C0C9BFFF7B1
:10433000CDFC002802D033781F43377021680B7BF7
:10434000DBB22B800C99201CFFF762FD011C0320BF
:1043500000291BD1231C5D33206801221A700589B6
:1043600010232B405C34002B09D0337802252B43DB
:10437000337011235B4203812170101C06E03078FA
:104380002370431E9841C0B200E0301C07B0F0BD5E
:10439000FFDFFFFFFFEFFFFFF0B5041C5D301D1CCA
:1043A000037887B003908C46171C0220012B00D0A5
:1043B0000FE1181C002900D10BE1002A00D108E10F
:1043C000616882235B0099420AD1A268002A07D162
:1043D0000095201C614662463B1CFFF77BFEF8E01F
:1043E000231C5C3302931B780220012B00D1F0E0E8
:1043F0000298012303990370261C04230B70624664
:1044000000235E3633702264A21DD7870232D7871D
:10441000A26AA363A387E38780239B019A4208D102
:1044200023686D4918880140198019880A4392B29F
:104430001A802368E268E021C90098888A4202D97C
:104440006649014002E0802149010143A06899804A
:1044500080210902884203D11888614901401980EE
:1044600018884021084202D1188801431980E023AE
:10447000DB009A4229D8271C0837FB8F012B29D94A
:104480000121201C0A1C2B1CFFF720FC002801D056
:1044900003209EE0236C21685A1C22640A7B1A7058
:1044A000FB8F013BFB87E6E70121201C0A1C2B1C2C
:1044B000FFF70CFC0028EBD12068236C82891A805E
:1044C00002332364FB8F013BFB87271C0837FB8FDC
:1044D000012BE9D8A26A80239B019A4205D1236867
:1044E0008022198852010A431A800121201C0A1CCB
:1044F0002B1CFFF7EBFB0028CAD1E068E021226803
:10450000236CC900884204D992891A80023323643B
:1045100003E0591C2164127B1A70231C0833DA8FC4
:10452000A16A013ADA8780239B01994231D10121A6
:10453000201C0A1C2B1CFFF7C9FB002803D0337872
:10454000022213433370E168E0226B46D2002068F8
:104550001633914203D9828992B21A8019E0007B06
:10456000C0B21880914214D1276B022F11D10121C2
:10457000201C0A1C2B1CFFF7A9FB002804D0231CBD
:104580005E331A7817431F7023681A7B6B46D2B2CA
:10459000DA82201C291CFFF75CFC002800D077E79A
:1045A000039901220A70216810230C8923400AD044
:1045B000337802242343337011235B420B81029B27
:1045C0001870101C05E0029803703078431E984163
:1045D000C0B207B0F0BDC046FFDFFFFFFFEFFFFF37
:1045E000FFBFFFFFF0B50A6885B0039200230122E8
:1045F000039C9A4014400294944200D0BDE04A6863
:104600001026151CB5430095022D12D1DC08A4001C
:104610000419276A072501970F261D40AD00371C96
:10462000019EAF40BE430F69AF403D1C371C2F4376
:1046300027625C0003250768A540ED432F40BC4678
:10464000032717406646A7403743009E0760013E98
:10465000012E0ED88768CE682F40A6403E43866064
:104660004768029EB7431026164036099E403E43D7
:104670004660C6688F683540A7403D4380277F0568
:10468000C560174048D0404C0126A5693F4F3543CF
:10469000A5619D08AD000326ED191E40AF68B60068
:1046A0000F24B440A74390240197E405A04208D00A
:1046B000374CA04207D0374F0524B84204D102241A
:1046C00002E0002400E00124B440019E029F344334
:1046D000AC60314CFD432668D70301D42E4001E085
:1046E000029F3E4326606668970301D42E4001E096
:1046F000029F3E436660A668D70201D42E4001E0C7
:10470000029F3E43A660E668970201D42E4001E076
:10471000029A1643E66030E01C4D9C08A400032674
:1047200064191E40A268B6000F25B5402A40944681
:104730009022D205904208D0154A904207D0154FDA
:104740000522B84204D1022202E03A1C00E0012214
:10475000B240944511D1A268029EAA43A2600E4ABB
:10476000F54314682C40146054682C4054609468DD
:104770002C409460D4682540D5600133102B00D0C4
:1047800035E705B0F0BDC046001002400000014012
:1047900000040048000800480004014000B5002A59
:1047A00000D10904816100BDF8B5041C0068C00790
:1047B00003D4216889074AD493E0B64D0C236A6874
:1047C0001A40042A0BD06A681340082B0FD16B687B
:1047D000C02252021A4080235B029A4207D12B6802
:1047E0009A03E6D56368012B00D050E1E1E7AA4EB9
:1047F00000233370FEF764F9071C2B68980307D574
:10480000FEF75EF9A54BC01B9842F6D90320B6E12E
:1048100023793370616800290CD0FEF751F9061C2A
:104820002B689A03C5D4FEF74BF99C4B801B98422A
:10483000F6D9EBE7FEF744F9061C2B689803B8D5C8
:10484000FEF73EF9954B801B9842F6D9DEE7914D75
:104850000C236A681A420BD06A681340082B16D1E1
:104860006B68C02252021A4080231B029A420ED16A
:104870002B68990703D5E268012A00D007E12B686D
:104880002069F821C2008B4313432B6029E0E168C3
:1048900001232A68002916D013432B60FEF710F974
:1048A000061C2A687B4B900705D4FEF709F9801B8C
:1048B0006428F6D9AAE720691A68C100F820824363
:1048C0000A431A600DE09A432A60FEF7F9F8061CC5
:1048D0002B68990705D5FEF7F3F8801B6428F7D9F4
:1048E00094E72268120703D423685B074DD521E0C3
:1048F000684D206A01236A6A00280DD013436B6259
:10490000FEF7DEF8061C6B6A9907EDD4FEF7D8F8BF
:10491000801B6428F7D979E79A436A62FEF7D0F8DA
:10492000061C6B6A9A07DFD5FEF7CAF8801B64285D
:10493000F7D96BE7574D8023EA695B051343584E5F
:10494000EB61326880235B0013433360FEF7B8F8F5
:10495000071C3368D8051CD52B6A052293432B62AC
:10496000FEF7AEF8061C2B6A4A4A990717D4116A5B
:10497000A3680520814319431162012B1DD1FEF765
:104980009FF8061C2B6A9A0710D52368DB0621D4F2
:1049900060E0FEF795F8C01B6428DAD936E7FEF729
:1049A0008FF83E4B801B9842DDD92FE7FEF788F841
:1049B0003A4B801B9842E5D928E7FEF781F8061CA0
:1049C0002B6A9807E1D5FEF77BF8344B801B9842A1
:1049D000F6D91BE762692F4D0423012A1AD1696BAE
:1049E0000B436B636B6B1A436A63FEF769F8061C33
:1049F0006A6B284B910705D4FEF762F8801B642888
:104A0000F6D903E7A0695A6BC100F82082430A4334
:104A10005A631FE005320AD16A6B9A436A63A1693F
:104A20006B6BCA00F8218B4313436B6312E06A6B14
:104A300013436B636B6B012293436B63FEF740F888
:104A4000061C6B6B9A0705D5FEF73AF8801B6428A5
:104A5000F7D9DBE623689B0603D4626A002A45D1B6
:104A600070E00C4D0C236A681A409A4209D06A68BB
:104A70001340082B16D16A68C0235B021A409A4281
:104A800010D16B6BD803E8D5E1690129E5D001208D
:104A900075E0C0460010024002100240881300007A
:104AA00000700040E269002A10D06A6B80235B022C
:104AB00013436B63FEF704F8061C6B6BD803CCD46E
:104AC000FDF7FEFF801B6428F7D99FE66A6B2C4B2D
:104AD00013406B63FDF7F4FF061C6B6BD903BCD569
:104AE000FDF7EEFF801B6428F7D98FE6254D0C23D8
:104AF00069680B40082BCAD0234B022A30D12A68A0
:104B000013402B60FDF7DCFF061C2A681D4B90014B
:104B10001AD4DA6A0F218A43E16A0A43DA62226B05
:104B2000A16A58681143194A02400A435A60196839
:104B3000802252040A431A60FDF7C2FF041C2B684E
:104B40009A0107D500201AE0FDF7BAFF801B642800
:104B5000DBD95BE6FDF7B4FF001B6428EFD955E60F
:104B60002A6813402B60FDF7ABFF041C2B689801EB
:104B7000E8D5FDF7A5FF001B6428F7D946E6F8BD88
:104B8000FFFFFEFF00100240FFFFFFFEFF7FC2FF9E
:104B90007D4BF7B50E1C19680122041C11401F1C27
:104BA0008E4278D919689143314319601B681A40C5
:104BB000B24201D00120E5E00368980706D5734AA8
:104BC000F02051688143A06801435160D9070BD49C
:104BD0002268520700D4D1E06C4B6D4A59680A40F4
:104BE000E1680A435A60C9E06368684D012B03D14C
:104BF0002A6890030FD4DDE7022B03D12A689101C4
:104C000009D4D7E7032B03D16A6BD00303D4D1E7D0
:104C10002A689107CED56A6803218A4313436B60E3
:104C2000FDF74EFF6368061C012B0CD16A680C234C
:104C30001340042BCCD0FDF743FF564B801B98420A
:104C4000F4D903209EE0022B0BD16A680C23134099
:104C5000082BBDD0FDF734FF4E4B801B9842F4D992
:104C6000EFE7032B0AD06A680C231A420CD1AFE796
:104C7000FDF726FF474B801B9842E2D86A680C2359
:104C800013400C2BF4D1A3E7FDF71AFF414B801B17
:104C90009842E8D9D5E703689A0706D53B4AF02041
:104CA00051688143A06801435160D9070AD43A682A
:104CB00001239A4332433A603A681340B34200D02A
:104CC00078E785E76368314D012B03D12A689003AB
:104CD00010D46FE7022B03D12A6891010AD469E747
:104CE000032B03D16A6BD00304D463E72A689107CE
:104CF00000D45FE76A6803218A4313436B60FDF7C2
:104D0000DFFE63680190012B0CD16A680C2313400D
:104D1000042BCCD0FDF7D4FE019A1E4B801A98428A
:104D2000F3D98EE7022B0CD16A680C231340082BB1
:104D3000BDD0FDF7C5FE019BC01A164B9842F3D9B2
:104D40007FE7032B0CD06A680C231A420ED1AEE722
:104D5000FDF7B6FE01990F4B401A984200D970E753
:104D60006A680C2313400C2BF2D1A0E7FDF7A8FED4
:104D7000019A084B801A9842E5D962E70020FDF7B6
:104D80007DFE0020FEBDC046002002400010024013
:104D9000FFF8FFFF8813000015490C224B6810B57F
:104DA0001A40082A05D00C2A20D0042A1CD1114808
:104DB0001DE09A021048120FC96A845C0F220A4053
:104DC0000E498020895CC022520213404002834277
:104DD00001D1084804E0934201D1094800E00948A4
:104DE000FBF7AEFD604302E0064800E0044810BD5A
:104DF000001002400024F400A05D0008905D00084F
:104E0000006CDC0200127A00F8B5041C0068C003D4
:104E100045D5364D8023EA695B051343344EEB617B
:104E2000326880235B0013433360FDF749FE071CA3
:104E30003368DA0506D4FDF743FEC01B6428F7D9B2
:104E4000032052E0286A6268C02150408900274B45
:104E500008420CD0186A27491E6A0140802040028F
:104E6000304318621E6A2448304018621962802359
:104E70005B009A4206D02A6A1E4B606813400343C7
:104E80002B620CE0FDF71CFE061C2B6A9A07F2D47D
:104E9000FDF716FE194B801B9842F6D9D0E7236820
:104EA000D80706D5114A0320116B8143A06801433E
:104EB00011639A0606D50D4A1020116B8143E068F4
:104EC000014311639A0306D5084A8020116B814380
:104ED00060690143116300205A0506D5034B402148
:104EE0001A6B8A4321690A431A63F8BD0010024015
:104EF00000700040FFFCFFFFFFFFFEFF8813000073
:104F000070B5041C0D1CFDF7DBFD2368061C9A69B7
:104F10000020D10641D5626B1204120E122A09D06C
:104F2000626B1204120E522A04D0626B1204120E2B
:104F3000622A14D15A68910111D459688022D20191
:104F40000A435A600BE09969114214D1691CFAD0E6
:104F5000002D07D0FDF7B4FD801BA84202D82368BE
:104F60002022F0E7231C353301221A703434002349
:104F70002370032011E01022DA612022DA615968DF
:104F8000064A01200A405A60231C363304221A7054
:104F9000013B187034340023237070BD00E800FE1C
:104FA000F7B51D1C041C0E1C0192FDF789FD019B29
:104FB000071C002B26D1226893693340B3420FD0DF
:104FC0006B1CF9D0002D0FD0FDF77AFDC01BA84255
:104FD000F1D909E06B1C05D193693340B342F9D094
:104FE000002011E0002D08D1231C353301221A7056
:104FF000343400232370032006E0FDF761FDC01B5D
:10500000A842F1D82268E7E7FEBD70B5041C0D1C6C
:10501000FDF756FD061C23689B699A061DD4201CCB
:10502000291CFFF76DFF002819D1002D0FD1626BED
:1050300020231202120E1A43231C36331A70013B2E
:1050400001221A70343400232370032008E0FDF796
:1050500037FD801BA842DED9E9E7002000E00120EF
:1050600070BD704738B5041E42D0436B1B041B0E45
:1050700001D1FFF7F6FF211C022335310B702368A5
:1050800001201A6882431A6060681A4A02401A6155
:105090009868194A02409A60A268E068002A0AD01B
:1050A000012804D18020000202439A6008E0842590
:1050B0002D022A439A60022802D1802212015A60EE
:1050C0005A680E48A56902435A6060692269104314
:1050D0002A020243DA60E069226A363402431A6027
:1050E0001868012210431860002020700A7000E048
:1050F000012038BDFFFFFFF0FF7FFFFF00800002AF
:10510000F0B585B00392426B041C1204120ED6B2A5
:105110000F1C1D1C0220012E00D0A4E0002901D18B
:105120000120A0E0039B002BFAD0231C3433197814
:10513000012900D197E01A70221C353242231370E6
:10514000231C0192363300221A702368474958689D
:1051500001405960201C2B1C0821FFF721FF236808
:1051600000280BD108228021DA61201C4902321C60
:105170002B1CFFF715FF002806D0236859688022F2
:1051800012020A435A606DE03E1CFDF799FC029042
:105190002368042299690A4035D198692021084280
:1051A0000CD0D9615868324901405960231C36330C
:1051B0001A700121013B1970013B0FE0002D1BD13A
:1051C000626B20231202120E1A43231C36331A700C
:1051D000019A01231370231C002234331A702368B0
:1051E0008022596812020A435A60636B01201B0235
:1051F0001B0E202B37D135E0FDF762FC029BC01A55
:10520000A842C5D9DCE75B6A3370039B0136FA1804
:1052100092B2B3B29A42B8D1201C1921FFF7F5FE21
:10522000802623683602002808D05A6816435E603C
:10523000636B1B021B0E042B14D171E72022DA6171
:10524000311C01222B1C201CFFF7AAFE23685A6880
:1052500016435E60002805D1019A0123343413708F
:10526000207000E0032005B0F0BDC046FF7FFFFFC7
:1052700000E800FEF0B51D1C85B0002303930191EA
:10528000416B041C0904090ECBB2171C0220012B30
:1052900075D123689A6980231B0213406FD1221CA9
:1052A00034321678012E6AD05070117093700199C3
:1052B00022688B05E1689B0D012901D1314901E08C
:1052C000A02189010B435360FDF7FAFB061C2368FC
:1052D000202110209A690A4204D09A69102632408F
:1052E00023D111E09A690242F7D1626B1204120EC7
:1052F000032AF2D06A1CEDD0002D38D0FDF7E0FB78
:10530000801BA842E3D932E0201C20212B1CFFF790
:1053100047FE002832D123682022DA61231C35336E
:10532000012234341A70207029E00022201C202130
:105330002B1CFFF735FE021E20D12368DE612026DC
:10534000DE610399481C0390B9420DD15868802151
:10535000C90101435960201C311C2B1CFFF720FEA2
:1053600000280BD12368DE61039BBB429FD3231C23
:10537000353301221A70343400232370032005B022
:10538000F0BDC0460020000270470000F0B5051CCB
:1053900069352E78031C012E02D00220122E48D12E
:1053A0000120002945D0002A43D01C1C68342778EE
:1053B0000220012F3DD0012020705965191C583161
:1053C0000A804A809A68802149018A4204D11A6978
:1053D000002A06D1174910E0002A06D11A69002ACE
:1053E00001D1FF2109E07F2107E0802149058A42A0
:1053F00006D11A69002AF6D03F211A1C5C321180AE
:105400001A1C6A32002111703222122E00D0222280
:105410001B682A701968802252000A431A609A6831
:1054200001210A439A601A68202100200A43207053
:105430001A60F0BDFF01000070477047021C69321E
:1054400012782021031C70B58A430220122A25D12C
:105450001C1C523420881A68002808D11368802147
:105460008B431360136840210B43136016E09E6862
:105470008025D96C6D01AE4209D11D69002D06D180
:105480000D880231ED05ED0D1585D96403E04D1C45
:10549000DD640B78138501382080002070BD00008A
:1054A000021C031C69325C3370B514781988102310
:1054B0009C430223222C34D186688025436D0468E6
:1054C0006D01AE4208D10569002D05D1646A214005
:1054D00019800233436504E05D1C4565646A214020
:1054E0001970031C5A331988013989B219800023B5
:1054F000994216D1036820241968A14319601178D4
:10550000322902D11223137008E01C680649214099
:1055100019609C6801218C439C601170FBF742FF6D
:105520000023181C70BDC046FFFEFFFFF7B51D1C11
:10553000041C0E1C0192FDF7C3FA019B071C002BF3
:1055400036D12268D3693340B3420FD06B1CF9D0F7
:10555000002D0FD0FDF7B4FAC01BA842F1D909E025
:105560006B1C05D1D3693340B342F9D0002021E050
:10557000002D18D1236880211A6803208A431A60FD
:105580001A6820218A431A6019680B4A0A401A6077
:105590009A6801218A439A60231C69331870683421
:1055A0000023237006E0FDF78BFAC01BA842E1D868
:1055B0002268D7E7FEBDC046FFFEFFFFF7B5061C19
:1055C000693601933378041C0D1C012B02D0022094
:1055D000222B4ED10120002D4BD0002A49D0271C70
:1055E000683739780220012943D001213970211C04
:1055F00000206A310870222B01D1322300E01223EF
:105600003370231C50331A805A80231C52331A885B
:10561000002A1ED0013A1A80201C80210022019B02
:10562000FFF784FF002801D0032022E0A168802238
:1056300023685201914208D12269002A05D12A88A3
:105640000235D205D20D1A85DFE72A7801351A8591
:10565000DBE7201C4021019BFFF768FF0028E3D116
:105660003378322B01D1222300E001230020337054
:105670003870FEBD031C6A33002210B51A7003682F
:10568000041C1B68190704D423681B685A0712D529
:1056900008E0802189030C4BFFF748FF0028F3D076
:1056A00003200FE08021201CC9030022064BFFF7D6
:1056B0003DFF0028F4D1231C693301226834002007
:1056C0001A70207010BDC046FFFFFF0170B5041CAA
:1056D000A2682169056811436269C369114328689A
:1056E000384A194302400A432A606968364A374EED
:1056F0000A40E1680A436A60216AA269A868114306
:10570000334A02400A43AA6080221202B54208D1FD
:105710003049086B032101402F48405C93422DD152
:1057200003E02E498D421CD108E008281BD8FBF766
:10573000F3F8071A0A1A0C1A1A1A1000934226D103
:1057400000F0FCF903E0264805E0FFF725FB4000E8
:1057500001E0802040026168FBF7F2F883B200208C
:1057600003E093422CD1012000230F221D1C134083
:10577000954321685B102B43CB6022E008281FD89B
:10578000FBF7CAF8051E0D1E0F1E1E1E160000F0A8
:10579000D5F96168FBF7D4F880B2E8600EE01148F3
:1057A00001E0FFF7F9FA6168FBF7CAF880B204E09C
:1057B000802000026168FBF7C3F8F060002000E081
:1057C000012070BDF369FFEFFFCFFFFF00380140FC
:1057D000FFF4FFFF00100240B05D000800440040ED
:1057E0000024F40000127A00436A30B5DA0706D5C7
:1057F0000268284954682140846A214351609A070D
:1058000006D50268244954682140C46A2143516086
:105810005A0706D50268214954682140046B214388
:1058200051601A0706D502681D4954682140446B2F
:1058300021435160DA0606D502681A49946821406E
:10584000846B214391609A0606D5026816499468D4
:105850002140C46B214391605A0610D50268134C55
:105860005568016C2C400C43546080246403A142B1
:1058700005D154680E492140446C214351601A06F9
:1058800006D503680B4A59680A40816C0A435A607E
:1058900030BDC046FFFFFDFFFFFFFEFFFFFFFBFF28
:1058A000FF7FFFFFFFEFFFFFFFDFFFFFFFFFEFFFC8
:1058B000FFFF9FFFFFFFF7FF38B5041E01D1012056
:1058C00028E0051C69352B78002B01D1FFF75CFD22
:1058D00002232B70236801211A68201C8A431A6056
:1058E000FFF7F4FE0128EAD0636A002B02D0201CE7
:1058F000FFF77AFF2368084A5968201C0A405A605B
:105900009A682A218A439A601A6801210A431A6018
:10591000FFF7B0FE38BDC046FFB7FFFF70B5890185
:10592000002815DAC0B20F230340083B124A9B0837
:105930009B009B1803221040FF24C200DD69201C3D
:10594000904085430C4094402A1C2243DA6112E0C7
:1059500082080A4B03249200D2182040C023A040A2
:105960009B00FF24D558261C8640B5430C4084403C
:10597000281C2043D05070BD00ED00E000E100E0A5
:105980001F23184001238340181C014B18607047E7
:1059900000E100E00A4B421E00B501209A420DD8FA
:1059A000084BC0215A60084A0906106A0002000A22
:1059B000014311620020072298601A6000BDC046B2
:1059C000FFFFFF0010E000E000ED00E0054B00B538
:1059D0001A68042802D11043186002E004218A43A7
:1059E0001A6000BD10E000E0704708B5FFF7FCFF4B
:1059F00008BD704738B50368041CD869221C012112
:105A00006A32084209D01868C50506D510781962AF
:105A100008431070201C69300170D96902200142CE
:105A20000BD09D6801210D4207D018621078042523
:105A300028431070201C69300170D969042001428C
:105A40000BD09D6801210D4207D018621078022505
:105A500028431070201C69300170D8690821084261
:105A60000AD09D680120054206D0196213781943B7
:105A7000231C6933117018701378002B02D0201C7E
:105A8000FFF7DBFC23688022D969520311420AD058
:105A90009968480207D51A62231C012269331A70DB
:105AA000201CFFF7A6FF22682023D16919420AD0E3
:105AB00012681A4207D0201CFFF7F2FC2368082165
:105AC0009A690A439A6122688023D169194205D0F4
:105AD00012681A4202D0201CFFF7B0FC2368402253
